{
  "contractName": "Account",
  "abi": [
    {
      "constant": true,
      "inputs": [
        {
          "name": "",
          "type": "address"
        }
      ],
      "name": "userMoney",
      "outputs": [
        {
          "name": "",
          "type": "uint256"
        }
      ],
      "payable": false,
      "stateMutability": "view",
      "type": "function"
    },
    {
      "constant": false,
      "inputs": [],
      "name": "createAccount",
      "outputs": [],
      "payable": false,
      "stateMutability": "nonpayable",
      "type": "function"
    },
    {
      "constant": false,
      "inputs": [],
      "name": "redeemBalance",
      "outputs": [],
      "payable": false,
      "stateMutability": "nonpayable",
      "type": "function"
    },
    {
      "constant": false,
      "inputs": [
        {
          "name": "whomCourseBuyed",
          "type": "address"
        }
      ],
      "name": "buyCourse",
      "outputs": [],
      "payable": true,
      "stateMutability": "payable",
      "type": "function"
    },
    {
      "constant": false,
      "inputs": [],
      "name": "getUserBalance",
      "outputs": [
        {
          "name": "",
          "type": "uint256"
        }
      ],
      "payable": false,
      "stateMutability": "nonpayable",
      "type": "function"
    }
  ],
  "bytecode": "0x6060604052341561000f57600080fd5b6103f08061001e6000396000f30060606040526000357c0100000000000000000000000000000000000000000000000000000000900463ffffffff1680633e5ceede1461006957806389d10cc71461007e5780639dca362f146100ac578063b7013dc1146100c1578063fd9b8cca146100ea57600080fd5b341561007457600080fd5b61007c610137565b005b6100aa600480803573ffffffffffffffffffffffffffffffffffffffff16906020019091905050610249565b005b34156100b757600080fd5b6100bf6102cf565b005b34156100cc57600080fd5b6100d4610315565b6040518082815260200191505060405180910390f35b34156100f557600080fd5b610121600480803573ffffffffffffffffffffffffffffffffffffffff169060200190919050506103ac565b6040518082815260200191505060405180910390f35b60008060003373ffffffffffffffffffffffffffffffffffffffff1673ffffffffffffffffffffffffffffffffffffffff168152602001908152602001600020541415151561018557600080fd5b3373ffffffffffffffffffffffffffffffffffffffff166108fc6000803373ffffffffffffffffffffffffffffffffffffffff1673ffffffffffffffffffffffffffffffffffffffff168152602001908152602001600020549081150290604051600060405180830381858888f19350505050151561020357600080fd5b60008060003373ffffffffffffffffffffffffffffffffffffffff1673ffffffffffffffffffffffffffffffffffffffff16815260200190815260200160002081905550565b346000808373ffffffffffffffffffffffffffffffffffffffff1673ffffffffffffffffffffffffffffffffffffffff16815260200190815260200160002054016000808373ffffffffffffffffffffffffffffffffffffffff1673ffffffffffffffffffffffffffffffffffffffff1681526020019081526020016000208190555050565b60008060003373ffffffffffffffffffffffffffffffffffffffff1673ffffffffffffffffffffffffffffffffffffffff16815260200190815260200160002081905550565b6000806000803373ffffffffffffffffffffffffffffffffffffffff1673ffffffffffffffffffffffffffffffffffffffff168152602001908152602001600020541415156103a4576000803373ffffffffffffffffffffffffffffffffffffffff1673ffffffffffffffffffffffffffffffffffffffff1681526020019081526020016000205490506103a9565b600090505b90565b600060205280600052604060002060009150905054815600a165627a7a72305820951c696903e533ff8b0e75bd0cc1595c51d1f30e7d181a3a53ea539f9a8b617e0029",
  "source": "pragma solidity ^0.4.17;\r\n\r\ncontract Account {\r\n    mapping(address => uint) public userMoney;\r\n\r\n        modifier restricted() {\r\n            require(userMoney[msg.sender] != 0);\r\n            _;                              \r\n        }\r\n\r\n    function createAccount() public {\r\n        userMoney[msg.sender] = 0;\r\n    }\r\n\r\n    function redeemBalance() public restricted {\r\n        msg.sender.transfer(userMoney[msg.sender]);\r\n        userMoney[msg.sender] = 0;\r\n    } \r\n    \r\n    function buyCourse(address whomCourseBuyed) public payable {\r\n        userMoney[whomCourseBuyed] = userMoney[whomCourseBuyed] + msg.value; \r\n    }\r\n\r\n    function getUserBalance() public returns(uint) {\r\n        if(userMoney[msg.sender] != 0) {\r\n            return userMoney[msg.sender];\r\n        } else {\r\n            return 0;\r\n        }\r\n        // return userMoney[msg.sender];\r\n    }\r\n\r\n}",
  "sourcePath": "D:/Projects/sem-5-design-project/src/contracts/Account.sol",
  "compiler": {
    "name": "solc",
    "version": "0.4.17+commit.bdeb9e52.Emscripten.clang"
  },
  "schemaVersion": "3.4.3",
  "updatedAt": "2021-11-26T17:08:45.716Z",
  "networkType": "ethereum",
  "devdoc": {
    "methods": {}
  },
  "userdoc": {
    "methods": {}
  }
}