{
  "contractName": "Ballot",
  "abi": [
    {
      "inputs": [
        {
          "internalType": "address",
          "name": "",
          "type": "address"
        }
      ],
      "name": "userMoney",
      "outputs": [
        {
          "internalType": "uint256",
          "name": "",
          "type": "uint256"
        }
      ],
      "stateMutability": "view",
      "type": "function"
    },
    {
      "inputs": [],
      "name": "createAccount",
      "outputs": [],
      "stateMutability": "nonpayable",
      "type": "function"
    },
    {
      "inputs": [],
      "name": "redeemBalance",
      "outputs": [],
      "stateMutability": "nonpayable",
      "type": "function"
    },
    {
      "inputs": [
        {
          "internalType": "address",
          "name": "whomCourseBuyed",
          "type": "address"
        }
      ],
      "name": "buyCourse",
      "outputs": [],
      "stateMutability": "payable",
      "type": "function"
    },
    {
      "inputs": [],
      "name": "getUserBalance",
      "outputs": [
        {
          "internalType": "uint256",
          "name": "",
          "type": "uint256"
        }
      ],
      "stateMutability": "view",
      "type": "function"
    }
  ],
  "bytecode": "0x608060405234801561001057600080fd5b50610519806100206000396000f3fe60806040526004361061004a5760003560e01c80633e5ceede1461004f57806389d10cc7146100665780639dca362f14610082578063b7013dc114610099578063fd9b8cca146100c4575b600080fd5b34801561005b57600080fd5b50610064610101565b005b610080600480360381019061007b91906103fd565b610218565b005b34801561008e57600080fd5b506100976102a7565b005b3480156100a557600080fd5b506100ae6102ed565b6040516100bb9190610443565b60405180910390f35b3480156100d057600080fd5b506100eb60048036038101906100e691906103fd565b610382565b6040516100f89190610443565b60405180910390f35b60008060003373ffffffffffffffffffffffffffffffffffffffff1673ffffffffffffffffffffffffffffffffffffffff16815260200190815260200160002054141561014d57600080fd5b3373ffffffffffffffffffffffffffffffffffffffff166108fc6000803373ffffffffffffffffffffffffffffffffffffffff1673ffffffffffffffffffffffffffffffffffffffff168152602001908152602001600020549081150290604051600060405180830381858888f193505050501580156101d1573d6000803e3d6000fd5b5060008060003373ffffffffffffffffffffffffffffffffffffffff1673ffffffffffffffffffffffffffffffffffffffff16815260200190815260200160002081905550565b346000808373ffffffffffffffffffffffffffffffffffffffff1673ffffffffffffffffffffffffffffffffffffffff16815260200190815260200160002054610262919061048d565b6000808373ffffffffffffffffffffffffffffffffffffffff1673ffffffffffffffffffffffffffffffffffffffff1681526020019081526020016000208190555050565b60008060003373ffffffffffffffffffffffffffffffffffffffff1673ffffffffffffffffffffffffffffffffffffffff16815260200190815260200160002081905550565b6000806000803373ffffffffffffffffffffffffffffffffffffffff1673ffffffffffffffffffffffffffffffffffffffff168152602001908152602001600020541461037a576000803373ffffffffffffffffffffffffffffffffffffffff1673ffffffffffffffffffffffffffffffffffffffff16815260200190815260200160002054905061037f565b600090505b90565b60006020528060005260406000206000915090505481565b600080fd5b600073ffffffffffffffffffffffffffffffffffffffff82169050919050565b60006103ca8261039f565b9050919050565b6103da816103bf565b81146103e557600080fd5b50565b6000813590506103f7816103d1565b92915050565b6000602082840312156104135761041261039a565b5b6000610421848285016103e8565b91505092915050565b6000819050919050565b61043d8161042a565b82525050565b60006020820190506104586000830184610434565b92915050565b7f4e487b7100000000000000000000000000000000000000000000000000000000600052601160045260246000fd5b60006104988261042a565b91506104a38361042a565b9250827fffffffffffffffffffffffffffffffffffffffffffffffffffffffffffffffff038211156104d8576104d761045e565b5b82820190509291505056fea264697066735822122058fe5a34c666c115d2a0914fc0b4fa12002dd60f53d355971cdc0619cd24b29464736f6c63430008090033",
  "immutableReferences": {},
  "source": "pragma solidity >=0.4.17;\n\ncontract Ballot {\n    mapping(address=> uint) public userMoney;\n\n        modifier restricted() {\n            require(userMoney[msg.sender] != 0);\n            _;                              \n        }\n\n    function createAccount() public {\n        userMoney[msg.sender] = 0;\n    }\n\n    function redeemBalance() public restricted {\n        //Converting this to address payable first\n        payable(msg.sender).transfer(userMoney[msg.sender]);\n        userMoney[msg.sender] = 0;\n    } \n    \n    function buyCourse(address whomCourseBuyed) public payable {\n        userMoney[whomCourseBuyed] = userMoney[whomCourseBuyed] + msg.value; \n    }\n\n    function getUserBalance() public view returns(uint) {\n        if(userMoney[msg.sender] != 0) {\n            return userMoney[msg.sender];\n        } else {\n            return 0;\n        }\n        // return userMoney[msg.sender];\n    }\n\n}",
  "sourcePath": "/home/naman/designProject/Cryptolx-Frontend/src/contracts/Account.sol",
  "compiler": {
    "name": "solc",
    "version": "0.8.9+commit.e5eed63a.Emscripten.clang"
  },
  "schemaVersion": "3.4.3",
  "updatedAt": "2021-11-26T17:16:18.798Z",
  "devdoc": {
    "kind": "dev",
    "methods": {},
    "version": 1
  },
  "userdoc": {
    "kind": "user",
    "methods": {},
    "version": 1
  }
}